:020000040000FA
:100000000C9462000C948A000C948A000C948A0070
:100010000C948A000C948A000C948A000C948A0038
:100020000C948A000C948A000C948A000C94B305FA
:100030000C948A000C948A000C948A000C948A0018
:100040000C9469050C948A000C948A000C948A0024
:100050000C948A000C948A000C948A000C948A00F8
:100060000C946F060C948A00000000002400270006
:100070002A0000000000250028002B0000000000DE
:1000800023002600290004040404040404040202DA
:100090000202020203030303030301020408102007
:1000A0004080010204081020010204081020000012
:1000B0000008000201000003040700000000000027
:1000C00000008E0711241FBECFEFD8E0DEBFCDBFEA
:1000D00011E0A0E0B1E0E2E1F7E102C005900D928D
:1000E000A637B107D9F722E0A6E7B1E001C01D921B
:1000F000A03FB207E1F710E0C2E6D0E004C02197CC
:10010000FE010E94780BC136D107C9F70E94210871
:100110000C94870B0C9400008F929F92AF92BF9229
:10012000FF920F931F93CF93DF93F090E0022BE0A9
:100130002F1508F44CC02091E20208E512E0021BE2
:10014000110927FD1395000F111F000F111F20919A
:10015000E102C8E8D0E0C21BD10927FDD395CC0F3E
:10016000DD1FCC0FDD1F4E010D2E000CAA08BB08B1
:100170009801012E000C440B550B281939094A0926
:100180005B09DC010E94330B24EB30E040E050E0DF
:100190000E94090B820E931EA41EB51E8C169D068E
:1001A0002CF0E801801691060CF4E4012297CC0FA4
:1001B000DD1F2FB7F8948F2D90E0FC01EE0FFF1F8D
:1001C000E80FF91FE45BFD4FD283C1832FBFDF919E
:1001D000CF911F910F91FF90BF90AF909F908F9004
:1001E000089596E0899FD0011124AF58BD4F909695
:1001F0007C936E935F9791E091969C939197E09199
:10020000DE02F091DF029091DD02992339F0309700
:1002100051F0811108C080918D020994309719F036
:100220005C968C91FACF0895CF92DF92EF92FF9275
:100230000F931F9396E0899FF0011124EF58FD4F13
:1002400011A2278D30A12130310551F178F02230F3
:10025000310509F451C02330310509F452C01F9112
:100260000F91FF90EF90DF90CF9008956623B9F340
:1002700061E070E00E94F1002FB7F89480913C0299
:1002800090913D02A0913E02B0913F022FBF80931A
:10029000C9029093CA02A093CB02B093CC02DFCFE5
:1002A0009FB7F894C0903C02D0903D02E0903E028F
:1002B000F0903F029FBF0091C9021091CA022091A5
:1002C000CB023091CC02C01AD10AE20AF30A0091A3
:1002D000DB021091DC0230E020E00C151D052E053C
:1002E0003F0550F462E070E01F910F91FF90EF9096
:1002F000DF90CF900C94F1006111B1CF63E070E01A
:10030000F3CF70E060E0F0CF833081F028F48130EB
:1003100099F08230A9F008958730A9F08830C9F0AB
:100320008430B1F4809180008F7D03C08091800083
:100330008F7780938000089584B58F7784BD08956A
:1003400084B58F7DFBCF8091B0008F778093B00014
:1003500008958091B0008F7DF9CFCF93DF93282F40
:1003600030E0F901E255FF4F8491F901E656FF4F65
:10037000D491F901EA57FF4FC491CC23A1F0811128
:100380000E948401EC2FF0E0EE0FFF1FE458FF4FB6
:10039000A591B491EC91ED2381E090E009F480E027
:1003A000DF91CF91089580E090E0FACF1F93CF9333
:1003B000DF93282F30E0F901E255FF4F8491F901D6
:1003C000E656FF4FD491F901EA57FF4FC491CC2371
:1003D000A9F0162F81110E948401EC2FF0E0EE0F9E
:1003E000FF1FEE58FF4FA591B4918FB7F894EC9191
:1003F000111108C0D095DE23DC938FBFDF91CF9120
:100400001F910895DE2BF8CFCF93DF9390E0FC018E
:10041000E656FF4F24918A579F4FFC018491882311
:10042000C9F090E0880F991FFC01E859FF4FA59192
:10043000B491FC01EE58FF4FC591D49161110DC0EC
:100440009FB7F8948C91209582238C9388812823E0
:1004500028839FBFDF91CF910895623051F49FB7F9
:10046000F8943C91822F809583238C93E8812E2BE6
:10047000EFCF8FB7F894EC912E2B2C938FBFEACF50
:100480003FB7F8948091380290913902A0913A02D6
:10049000B0913B0226B5A89B05C02F3F19F00196ED
:1004A000A11DB11D3FBFBA2FA92F982F8827BC01CE
:1004B000CD01620F711D811D911D42E0660F771FF6
:1004C000881F991F4A95D1F708958F929F92AF92F6
:1004D000BF92CF92DF92EF92FF924B015C010E949C
:1004E00040026B017C010E9440026C197D098E095B
:1004F0009F09683E734081059105A8F321E0821AA7
:100500009108A108B10888EEC80E83E0D81EE11C4E
:10051000F11C81149104A104B10429F7FF90EF901C
:10052000DF90CF90BF90AF909F908F900895862FCF
:10053000642F0C940402862F642F0C94D601862F0E
:100540000C94AD0108950895AF92BF92CF92DF92BF
:10055000EF92FF920F931F93CF93DF936C017B0178
:100560008B01040F151FEB015E01AE18BF08C01709
:10057000D10759F06991D601ED91FC910190F0817C
:10058000E02DC6010995892B79F7C501DF91CF913F
:100590001F910F91FF90EF90DF90CF90BF90AF90A1
:1005A000089508952091B701260F3327331F213274
:1005B0003105ECF420910002FC0190E080E0243051
:1005C00069F082E00895A091B7012191AC014956EC
:1005D0005E4FA40FB52FB11D2C930196861798F38B
:1005E0008091B701680F6093B70180E0089581E0C2
:1005F00008951092000281E08093FF011092DA01C9
:1006000061E082E10E94D60161E083E10E94D601AF
:10061000E9EBF0E080818E7F808380818D7F808315
:1006200088E48093B80085E48093BC000895CF935C
:10063000DF9391E0909396018823B9F0C091B800C0
:10064000D091BA008091BC008A7B8093BC0060E0AE
:1006500082E10E94D60160E083E10E94D6010E94FF
:10066000F902D093BA00C093B800DF91CF910895FA
:100670000895E091300280912F02E81730F4F0E005
:10068000EA58FE4F808190E008958FEF9FEF089524
:100690009091300280912F022FEF3FEF981748F48E
:1006A000E92FF0E0EA58FE4F208130E09F5F909301
:1006B0003002C901089580912F0290913002891B68
:1006C000990B0895CF92DF92EF92FF920F931F93B1
:1006D000CF93DF937C01CB018A0120910602222374
:1006E00089F0EB016B01C40ED51ECC15DD0569F058
:1006F0006991D701ED91FC910190F081E02DC70146
:100700000995F3CF642F0E94D202C801DF91CF91E7
:100710001F910F91FF90EF90DF90CF900895CF93AE
:10072000DF931F92CDB7DEB76983209106022223A3
:10073000F9F020912D02203258F021E030E0FC0148
:100740003383228390E080E00F90DF91CF91089572
:1007500080912E02E82FF0E0E95FFD4F99819083B0
:100760008F5F80932E0280932D0281E090E0ECCF8A
:1007700061E0CE0101960E94D202F7CFCF92DF92C4
:10078000EF92FF920F931F93CF93DF93FC01C481ED
:1007900021E020930602C093270210922E021092AD
:1007A0002D028485682B80E492E00E948F03D09113
:1007B0002D02D13208F092C00E9440026B017C01F0
:1007C00080910002811165C082E08093000281E087
:1007D0008093FF018FEF8093FE011092FD01D09373
:1007E000FC01A7E0B2E0ECEDF1E080E0D81385C0B9
:1007F0001092DB018091DB01CC0FC82BC093DB0191
:100800008091DA01813009F07CC01092DA010E94F7
:1008100040026B017C018091DB018093BB008091E1
:10082000020290910302A0910402B0910502892B6B
:100830008A2B8B2B99F00E944002009102021091AA
:10084000030220910402309105026C197D098E0982
:100850009F090617170728073907E0F18091BC00A8
:1008600083FDD9CF85EC8093BC000E9440026B01D0
:100870007C0180910002823009F445C08091FE0124
:100880008F3F61F18091FE01803241F18091FE0144
:1008900025C08091020290910302A0910402B091C0
:1008A0000502892B8A2B8B2B09F48ACF0E944002E8
:1008B000009102021091030220910402309105027E
:1008C0006C197D098E099F09061717072807390734
:1008D00008F076CF809101020E94170310922E0239
:1008E00010922D0210920602DF91CF911F910F916D
:1008F000FF90EF90DF90CF9008959D9191938F5F3F
:1009000075CF85EEB0CF8091020290910302A09145
:100910000402B0910502892B8A2B8B2B09F4A9CFF5
:100920000E944002009102021091030220910402F1
:10093000309105026C197D098E099F09061717076A
:100940002807390708F095CFC5CF90E080E00895DB
:10095000FC0101900020E9F73197AF01481B590BCA
:10096000BC0183EE92E00C94A4020F931F93CF93EB
:100970008C01C62F0E94BE036C2F6460C8010E94C8
:10098000BE036C2F6B7FC8010E94BE0383EC90E016
:100990000197F1F7CF911F910F9108950F931F9336
:1009A000CF93DF938C01D62FC42F607F642B0E94DE
:1009B000B50480E1D89FB00111246C2BC801DF91F0
:1009C000CF911F910F910C94B504CF93DF93CDB7C6
:1009D000DEB728970FB6F894DEBF0FBECDBF98E004
:1009E000EDE1F1E0DE01119601900D929A95E1F7AB
:1009F0009091EB02961708F46FEF262F30E0220F4C
:100A0000331F41E050E04C0F5D1F240F351FF901EB
:100A10006081680F606840E083EE92E028960FB630
:100A2000F894DEBF0FBECDBFDF91CF910C94CE0402
:100A300040E061E083EE92E00E94CE048BE39FE110
:100A40000197F1F78091EC02882321F060E080E0CB
:100A50000C94E504089541E00E94CE0481E090E00A
:100A6000089585ED8093BC0080910202909103026D
:100A7000A0910402B09105020796A11DB11D23E0CB
:100A8000B695A795979587952A95D1F72091BC00A3
:100A900024FD03C01092000208954091020250917B
:100AA00003026091040270910502452B462B472BEF
:100AB00069F30097A105B10541F02AE22A95F1F703
:100AC00000C00197A109B109E1CF809101020C9406
:100AD00017031F920F920FB60F9211242F933F937B
:100AE0008F939F93AF93BF9380913C0290913D026F
:100AF000A0913E02B0913F023091370223E0230FD4
:100B00002D3758F50196A11DB11D20933702809312
:100B10003C0290933D02A0933E02B0933F0280912D
:100B2000380290913902A0913A02B0913B020196AD
:100B3000A11DB11D8093380290933902A0933A020F
:100B4000B0933B02BF91AF919F918F913F912F91B5
:100B50000F900FBE0F901F90189526E8230F029656
:100B6000A11DB11DD2CF1F920F920FB60F9211246B
:100B70002F933F934F935F936F937F938F939F93A5
:100B8000AF93BF93CF93DF93EF93FF9380912802AE
:100B9000C0917002D0E087FF24C0109285001092AF
:100BA0008400809128028F5F809328028091280220
:100BB000082E000C990B8C179D0724F480912802B5
:100BC0008C30C4F18091840090918500049680342B
:100BD0009C4908F47AC08091840090918500049625
:100BE00076C080912802082E000C990B8C179D0767
:100BF000C4F6E09128028E2FEE0F990BFC01EE0F48
:100C0000FF1FE80FF91FE45BFD4F808186FFC9CF0E
:100C1000E09128028E2FEE0F990BFC01EE0FFF1FC3
:100C2000E80FF91FE45BFD4F808160E08F730E9445
:100C3000D601B7CF2091840030918500E091280241
:100C40008E2FEE0F990BFC01EE0FFF1FE80FF91F1F
:100C5000E45BFD4F81819281820F931F9093890005
:100C600080938800E09128028E2FEE0F990BFC01F3
:100C7000EE0FFF1FE80FF91FE45BFD4F808186FF39
:100C800011C0E09128028E2FEE0F990BFC01EE0FA0
:100C9000FF1FE80FF91FE45BFD4F808161E08F7358
:100CA0000E94D601FF91EF91DF91CF91BF91AF915B
:100CB0009F918F917F916F915F914F913F912F9174
:100CC0000F900FBE0F901F90189580E49CE99093B1
:100CD0008900809388008FEF80932802E3CF1F92D2
:100CE0000F920FB60F9211242F933F934F935F9360
:100CF0006F937F938F939F93AF93BF93EF93FF93E4
:100D00008091B900887F803609F44AC0F0F58832B6
:100D100009F4A7C018F5803109F49BC0B8F4882302
:100D200009F4F9C0883009F494C0FF91EF91BF91A4
:100D3000AF919F918F917F916F915F914F913F9173
:100D40002F910F900FBE0F901F901895883109F4C6
:100D500088C0803251F78093FE0114C0803409F4BA
:100D60009DC040F48033B9F38833F9F68093FE01D7
:100D700085ECB0C0803509F485C0883509F496C08B
:100D8000883499F60E943105D0CF883909F48CC097
:100D900038F5883729F050F4883611F0803729F675
:100DA00083E0809300021092D90157C0883809F47B
:100DB0007BC0803919F0803809F0B7CF8091D90114
:100DC000803208F071C0E091D90181E08E0F8093EC
:100DD000D9018091BB00F0E0E754FE4F80833DC015
:100DE000803B39F0E0F4803A09F479C0883A09F0A0
:100DF0009CCF84E0809300021092B8011092B7015A
:100E0000E0912B02F0912C0209958091B70181119C
:100E10000FC081E08093B7011092970109C0803C18
:100E200009F4A6CF883C09F4A3CF883B09F07DCF15
:100E3000E091B80181E08E0F8093B801F0E0E956AF
:100E4000FE4F80818093BB009091B8018091B701E3
:100E500029C08091DB018093BB0085EC8093BC00AE
:100E600064CF9091FD018091FC01981758F5E091B5
:100E7000FD0181E08E0F8093FD01F0E0E452FE4F12
:100E80008081E9CFE091FD0181E08E0F8093FD012B
:100E90008091BB00F0E0E452FE4F80839091FD0111
:100EA0008091FC019817C8F285E8D8CFE091FD0148
:100EB00081E08E0F8093FD018091BB00F0E0E45251
:100EC000FE4F80838091FF0181115CCF81E0809390
:100ED000DA0184EA8093BC001092000226CF85ECF0
:100EE0008093BC00109200028091D901803230F4CE
:100EF000E091D901F0E0E754FE4F10826091D901F2
:100F000070E0E0912902F0912A0289EB91E00995C5
:100F10001092D9010ACF1092FE0134CF10924302F1
:100F20001092420288EE93E0A0E0B0E08093440289
:100F300090934502A0934602B093470289E291E064
:100F400090934102809340021092E6021092E502D3
:100F500085E491E09093E4028093E3021092EC0226
:100F600087E28093E70280E18093ED0282E0809344
:100F7000EE021092EF02809170028C3008F05DC09A
:100F800091E0980F909370028093E00290E0FC0152
:100F9000EE0FFF1FE80FF91FE45BFD4F88EB9BE0AE
:100FA00092838183109273021092770210927602DC
:100FB000109278028BE391E0909372028093710219
:100FC000EDE8F2E01082148213821582369682E0F8
:100FD000E93CF807B9F789E091E09093D402809357
:100FE000D30285E091E09093D6028093D50284E00D
:100FF0008093D7028093D8028DE091E09093D20243
:101000008093D1028AE090E09093DA028093D90233
:1010100084EF91E09093DC028093DB021092DF0278
:101020001092DE021092CD021092CE021092CF02E8
:101030001092D0021092DD0208958FEF8093E002AB
:10104000B1CF789484B5826084BD84B5816084BD5D
:1010500085B5826085BD85B5816085BD80916E0056
:10106000816080936E001092810080918100826087
:1010700080938100809181008160809381008091C4
:1010800080008160809380008091B10084608093B3
:10109000B1008091B00081608093B00080917A00AF
:1010A000846080937A0080917A00826080937A00D5
:1010B00080917A00816080937A0080917A008068C4
:1010C00080937A001092C1001092300210922F0289
:1010D00010922E0210922D020E94F90282EA92E0F2
:1010E00090932C0280932B0283EA92E090932A0241
:1010F000809329021092E8028091EE02823018F06B
:1011000098E09093E8028093EB0262E370E080E065
:1011100090E00E9465026091EF0283EE92E00E94EF
:10112000BE0368EE73E080E090E00E94650260E339
:1011300083EE92E00E94B504CBE4D6E4CE010197A1
:10114000F1F760E383EE92E00E94B5042197F1F796
:1011500060E383EE92E00E94B50483E592E001979C
:10116000F1F760E283EE92E00E94B5046091E8023C
:10117000606240E083EE92E00E94CE0484E08093BF
:10118000E90240E06CE083EE92E00E94CE040E940F
:10119000180582E08093EA0240E066E083EE92E088
:1011A0000E94CE0440E062E083EE92E00E94CE0412
:1011B0008BE39FE10197F1F788E08093EF0260E015
:1011C00083EE92E00E94BE0360E080E00E94E504AE
:1011D0008DE491E00E94A8048091E0028C3008F038
:1011E00051C061E08CE00E9404028091E002282F4F
:1011F00030E0F901EE0FFF1FE20FF31FE45BFD4F3C
:101200009081907C9C6090831092E1021092E202A7
:101210002CE0622F0E946C0B829FB001112430E001
:1012200020E0AB01420F531FFA01EE0FFF1FE40F46
:10123000F51FE45BFD4F908196FD16C02F5F3F4F79
:101240002C30310571F781110FC01092800082E0BF
:10125000809381001092850010928400B19A809151
:101260006F00826080936F00E091E0028E2F90E02B
:10127000FC01EE0FFF1FE80FF91FE45BFD4F8081BB
:101280008064808390E080E00E948C0061E08AE0CE
:101290000E94040261E089E00E94040261E08BE0A8
:1012A0000E940402412C512C3201439488248A94D8
:1012B000982C50E0C52E50E0D52E51E05093DD0221
:1012C0008FB7F89440913C0250913D0260913E02EC
:1012D00070913F028FBF8091CD029091CE02A0917C
:1012E000CF02B091D002481B590B6A0B7B0B809147
:1012F000D9029091DA02B0E0A0E084179507A60722
:10130000B70708F053C1C0E08091D702C81760F456
:10131000E091D302F091D402EC0FF11D62E08081E4
:101320000E940402CF5FF0CF312C8091D802381692
:1013300008F05FC0032D10E0E091D502F091D602D5
:10134000E00FF11F61E080810E940402E091D5026C
:10135000F091D602E00FF11F60E080810E94D6017B
:10136000D301C201032C04C0880F991FAA1FBB1F01
:101370000A94D2F75C017C01E094F094212C8091D6
:10138000D7022816F8F4C22DD0E0E091D302F091F4
:10139000D402EC0FFD1F80810E94AD012496CC0F7A
:1013A000DD1FCF58DD4F892B41F4888199818A292F
:1013B0009B29998388832394E2CF888199818E2108
:1013C0009F21F7CFE091D502F091D602E00FF11FF7
:1013D00061E080810E94D6018091D5029091D60271
:1013E000080F191F60E0F80180810E940402339405
:1013F0009CCF01E712E0E8018F8D98A1892B21F4A1
:101400001C8E9E8E8D8E19A22696F2E0CD3ADF07B5
:1014100099F7B12C8091D702B81608F053C0A12CCF
:10142000EB2CF12CEE0CFF1CC70187589D4F7C0163
:101430002091D802A21608F043C0F70160817181A3
:101440000A2C02C0769567950A94E2F7B29E900145
:1014500011242A0D311DE1E7F2E080E0458D568D23
:101460002417350709F4D3C08F5F36968A30B1F759
:1014700060FF24C0E1E7F2E090E080E0448D41119C
:1014800018C0E091D102F091D202E20FF31F408127
:1014900056E0589FF001599FF00D1124EF58FD4F71
:1014A000448F368F258F10A2178E61E00E941401A1
:1014B00005C0019636968A30910501F7A394B8CFFE
:1014C000B394A8CF80E0F80191A19111892F0A5F10
:1014D0001F4FC017D107B9F79FB7F89440913C024E
:1014E00050913D0260913E0270913F029FBF409338
:1014F000CD025093CE026093CF027093D002882326
:1015000009F454C080919202882309F44FC080915D
:10151000900290919102019709F048C080918D024C
:10152000811147C0809136028430C9F5109235028E
:101530000E94180560E071E081E392E00E947E0B5A
:10154000892B09F04BC08DE591E00E94A80461E071
:101550008BE00E94D60184EB90E00E948C0068EB47
:101560007BE080E090E00E94650290E080E00E94D5
:101570008C0060E08BE00E94D60110923102109244
:1015800032021092330210923402109235021092FD
:1015900036020E9418058DE491E00E94A804C1144F
:1015A000D10409F48ACE0E94000087CE1092DD0299
:1015B000B9CFC0913602EC2FF0E0EF5CFD4F808395
:1015C00061E08C2F0E94E50441E06AE283EE92E044
:1015D0000E94CE04CF5FC0933602A4CF8AE691E08A
:1015E0000E94A80461E089E00E94D60161E08AE0DF
:1015F0000E94D60168EE73E080E090E00E946502F0
:1016000060E08AE00E94D60160E089E0B4CF6170BA
:101610004DCF052E97FB1EF400940E94200B57FD22
:1016200007D00E943B0B07FC03D04EF40C94200B18
:1016300050954095309521953F4F4F4F5F4F0895FE
:1016400090958095709561957F4F8F4F9F4F08952E
:101650000E945D0BA59F900DB49F900DA49F800DDF
:10166000911D11240895B7FF0C94280B0E94280B9C
:10167000821B930B0895A1E21A2EAA1BBB1BFD012E
:101680000DC0AA1FBB1FEE1FFF1FA217B307E40761
:10169000F50720F0A21BB30BE40BF50B661F771FB9
:1016A000881F991F1A9469F7609570958095909599
:1016B0009B01AC01BD01CF010895A29FB001B39F72
:1016C000C001A39F700D811D1124911DB29F700D4B
:1016D000811D1124911D0895991B79E004C0991F63
:1016E000961708F0961B881F7A95C9F7809508957C
:1016F000EE0FFF1F0590F491E02D0994FB01DC0132
:101700008D91019080190110D9F3990B0895F894E7
:10171000FFCF31313530000607080D0203040531D3
:1017200032334134353642373839432A3023440086
:1017300000400014005400000000008F036203A565
:101740000438035B03480339030000000097029B41
:10175000029F02000000002B05A402A504D102454F
:101760006E7465722050617373776F72643A0055BE
:101770006E6C6F636B696E672E2E2E00496E636F01
:08178000727265637421000020
:107E0000112484B714BE81FFF0D085E080938100F7
:107E100082E08093C00088E18093C10086E0809377
:107E2000C20080E18093C4008EE0C9D0259A86E02C
:107E300020E33CEF91E0309385002093840096BBD3
:107E4000B09BFECF1D9AA8958150A9F7CC24DD24C4
:107E500088248394B5E0AB2EA1E19A2EF3E0BF2EE7
:107E6000A2D0813461F49FD0082FAFD0023811F036
:107E7000013811F484E001C083E08DD089C08234E0
:107E800011F484E103C0853419F485E0A6D080C0E4
:107E9000853579F488D0E82EFF2485D0082F10E0AE
:107EA000102F00270E291F29000F111F8ED06801E7
:107EB0006FC0863521F484E090D080E0DECF843638
:107EC00009F040C070D06FD0082F6DD080E0C81688
:107ED00080E7D80618F4F601B7BEE895C0E0D1E017
:107EE00062D089930C17E1F7F0E0CF16F0E7DF06D8
:107EF00018F0F601B7BEE89568D007B600FCFDCFD4
:107F0000A601A0E0B1E02C9130E011968C91119780
:107F100090E0982F8827822B932B1296FA010C0160
:107F200087BEE89511244E5F5F4FF1E0A038BF0790
:107F300051F7F601A7BEE89507B600FCFDCF97BE46
:107F4000E89526C08437B1F42ED02DD0F82E2BD052
:107F50003CD0F601EF2C8F010F5F1F4F84911BD097
:107F6000EA94F801C1F70894C11CD11CFA94CF0C13
:107F7000D11C0EC0853739F428D08EE10CD085E9AC
:107F80000AD08FE07ACF813511F488E018D01DD067
:107F900080E101D065CF982F8091C00085FFFCCF94
:107FA0009093C60008958091C00087FFFCCF809118
:107FB000C00084FD01C0A8958091C6000895E0E648
:107FC000F0E098E1908380830895EDDF803219F02E
:107FD00088E0F5DFFFCF84E1DECF1F93182FE3DFCA
:107FE0001150E9F7F2DF1F91089580E0E8DFEE27F6
:047FF000FF270994CA
:027FFE00040479
:00000001FF
